:020000040800F2
:10000000C8040020A1010008FF1200084F110008D9
:10001000FD1200080D02000879140008000000001D
:100020000000000000000000000000008113000834
:100030000F020008000000000113000883130008ED
:10004000BB010008BB010008BB010008BB010008A0
:10005000BB010008BB010008BB010008BB01000890
:10006000BB0100081102000845020008BB0100089E
:10007000BB010008BB010008BB010008BB01000870
:10008000BB010008BB010008BB010008BB01000860
:10009000BB010008BB010008BB0100087902000891
:1000A000BB010008BB010008BB010008BB01000840
:1000B000BB0100080000000000000000BB010008B8
:1000C000BB010008BB010008BB010008BB01000820
:1000D000BB010008BB0100086D140008BB0100084B
:1000E000BB010008BB010008000000000000000088
:1000F0000000000000000000000000000000000000
:1001000000000000BB01000800000000BB01000867
:100110000000000000000000BB010008BB01000857
:10012000BB010008BB010008BB010008BB010008BF
:10013000BB010008000000000000000000000000FB
:10014000BB010008BB010008BB0100080000000063
:10015000BB010008BB010008BB010008BB0100088F
:10016000BB010008BB010008BB0100080000000043
:10017000BB010008BB0100080000000000000000F7
:10018000BB010008BB010008BB010008DFF80CD070
:1001900000F02AF800480047B9140008C8040020FD
:1001A0000648804706480047FEE7FEE7FEE7FEE711
:1001B000FEE7FEE7FEE7FEE7FEE7FEE7FD130008C9
:1001C0008D010008D2B201E000F8012B491EFBD2DC
:1001D00070470022F6E710B513460A460446194652
:1001E000FFF7F0FF204610BD064C074D06E0E06823
:1001F00040F0010394E8070098471034AC42F6D36E
:10020000FFF7C8FFB0150008D0150008FEE77047DB
:1002100010B5082000F0B8F8322000F0A1F808214D
:10022000064800F0A8F901284FF0080002D0044960
:10023000086010BDBDE8104000F0A6B800040048FA
:100240001404014010B5322000F08AF8102108484B
:1002500000F091F901284FF0100006D00549086020
:10026000BDE81040102000F08FB800F08DF8F7E7DF
:10027000000400481404014010B5322000F070F86A
:100280000F4C2021204600F076F9012812D04021A1
:10029000204600F070F901280ED00A4820210160A4
:1002A00040210160202000F06FF8BDE810404020A0
:1002B00000F06AB8202000E0402000F065F8F1E787
:1002C000000400481404014010B590F825100022E5
:1002D000022905D00421C16380F82420012010BD2B
:1002E00001680B6823F00E030B6001680B6823F0B4
:1002F00001030B6090F84410046C01F01C03012111
:1003000001FA03F3636080F8251080F8242010467A
:1003100010BD10B590F825100024022903D0042147
:10032000C16301241AE001680A6822F00E020A6023
:1003300001680A6822F001020A6090F84410036C18
:1003400001F01C02012101FA02F25A6080F8251026
:10035000002180F82410816B01B18847204610BD30
:1003600070B5044600F01AF90546601C02D0044836
:100370000078044400F012F9401BA042FAD370BD8B
:100380003000002070470000044910B50A6802429E
:1003900002D00860FFF7F6FF10BD00001404014012
:1003A0002DE9F04FDFF8AC9100230325A9F1040BF0
:1003B00085B04FF0010C0F2709F1040AABF1040ED0
:1003C000BFE000BF0CFA03F6324075D00C7904F0A0
:1003D0000304012C01D0022C1BD1846800945C0022
:1003E00005FA04F80494009C24EA08040094D1F867
:1003F0000C80049C08FA04F8009C48EA0408C0F841
:1004000008804468B4430E79C6F300169E40264324
:1004100046600C79E443A4070AD0C4684FEA430855
:1004200005FA08F6B4438E6806FA08F62643C66055
:100430000C7904F00304022C10D1DC0800EB8404D6
:100440000294246A5E074FEAD66807FA08F6B443B6
:100450000E6906FA08F62643029C266204684FEAF3
:10046000430805FA08F6B4430E7906F0030606FAC7
:1004700008F6264306604C6814F4403F60D0364CC2
:10048000266E46F001062666246E23F0030604F06D
:1004900001040094314C34440294A4689E074FEA4E
:1004A000167807FA08F6B443B0F1904F05D02C4EF9
:1004B000B04204D1012612E042E000260FE0294EAE
:1004C000B04201D102260AE0274EB04201D10326F4
:1004D00005E0264EB04201D1042600E0072606FAC8
:1004E00008F62643029CA660D9F800604C46D1F875
:1004F000048096435FEAC82800D516432660DAF8E0
:1005000000405646D1F8048094435FEA882800D51D
:1005100014433460DBF800405E46D1F80480944315
:100520005FEA883800D514433460DEF80040764630
:10053000D1F8048094435FEAC83800D5144334608E
:100540005B1C0A6832FA03F47FF43CAF05B000F09C
:100550000FB80000080401400010024000000140F4
:100560000004004800080048000C00480010004843
:1005700030BCBDE8C08F0069084000D00120704742
:10058000426921EA02030A4043EA0241816170475D
:100590000AB181617047816270470000014880683C
:1005A0007047000030000020024881680278114442
:1005B000816070473000002010B50024032000F057
:1005C00071F8002000F008F808B1012401E000F003
:1005D00025F8204610BD000070B50E4E05460024DB
:1005E000307898B14FF47A71B1FBF0F00A4909689C
:1005F000B1FBF0F000F048FC40B9102D06D200220B
:100600002946501E00F02EF8756000E001242046B7
:1006100070BD0000300000203C000020094808B5F3
:10062000016E41F001010166016E01F001010091CE
:10063000816D41F080518165806D00F080500090A7
:1006400008BD000000100240002809DB00F01F0276
:10065000012191404009800000F1E020C0F8001124
:1006600070470000F0B40E4B1B680C46C3F3022326
:10067000C3F10705042D00D90425191D072901D24E
:10068000002300E0DB1E012606FA05F1491E214089
:1006900099409E40761E16403143F0BC00F0EDBEFE
:1006A0000CED00E0064900F0070208684FF6FF0372
:1006B000184040EA0220034A1043086070470000D7
:1006C0000CED00E00000FA051649B0F5007F08685F
:1006D000C0F3412009D0022805D0086820F4C0608A
:1006E00040F480600860002070470128FBD0086853
:1006F00020F4C06040F4007008600B4832220068AB
:1007000050430A4AB0FBF2F0401C00E0401E4A6928
:10071000520501D50028F9D148694005E3D50320E9
:1007200070470000007000403C00002040420F0075
:100730000248006800F4C06070470000007000408C
:100740002DE9F0470F4605006BD0494E306800F0A8
:100750000700B84209D2306820F007003843306003
:10076000306800F00700B8425BD12878414C800720
:100770000AD5A868A16801F0F001884204D9A168EF
:1007800021F0F0010143A1602878C0072CD06868EF
:10079000032811D0022812D0216898B149050029F8
:1007A0003FDAA16821F003010143A160FFF7F6FEE3
:1007B000804641F2883910E021688901EFE721681D
:1007C0008903ECE78907EAE7FFF7E8FEA0EB0801F9
:1007D000494502D90320BDE8F087A068696800F0A8
:1007E0000C00B0EB810FEFD1287880070AD5A868FC
:1007F000A16801F0F001884204D2A16821F0F00163
:100800000143A160306800F00700B8420BD930689E
:1008100020F0070038433060306800F00700B8422D
:1008200001D00120D7E72878400705D5A068E968FE
:1008300020F4E0600843A0602878000706D5A0688F
:10084000296920F4605040EAC100A06000F01AF865
:10085000A168094AC1F30311515C01F01F01C840AE
:100860000649086006480068BDE8F047FFF7B4BED7
:100870000020024000100240701500083C000020DB
:100880003400002070B52549002318468A68CC68DA
:1008900012F00C0204F00306214C4FEA640509D063
:1008A0000C2A05D0042A32D0082A00D1284670BD6F
:1008B000012E10D10B681B0704D4D1F89430C3F378
:1008C000032302E00B68C3F30313164E56F82330DC
:1008D000DAB10C2AEBD1C86800F00300022818D066
:1008E000032818D01846CA68CB68C2F30212C3F3B3
:1008F00006234343521CB3FBF2F2C868C0F34160C5
:10090000401C4000B2FBF0F070BD184670BD2046A0
:1009100070BD2046E7E72846E5E7000000100240EA
:100920000024F400801500082DE9F84304006FD07E
:10093000FA4DA86800F00C06E86800F0030720787C
:10094000C00664D576B10C2E01D1012F0AD0A06962
:10095000002828687AD040F001002860FFF71EFECA
:1009600080465DE02868800702D5A0690028DED0B7
:10097000216A2868000703D5286800F0F00004E029
:10098000D5F89400F02202EA1010814216D90846E8
:1009900000F0B8FC00283BD1286840F0080028602F
:1009A0002868216A20F0F000084328606868E1693F
:1009B00020F47F4040EA0120686016E0286840F09B
:1009C000080028602868216A20F0F00008432860A9
:1009D0006868E16920F47F4040EA0120686026B938
:1009E000206A00F08FFC0028D5D1FFF74BFFA968E3
:1009F000CB4AC1F30311515C01F01F01C840C94942
:100A00000860C9480068FFF7E7FD00287ED12EE0A6
:100A1000CAE000BFFFF7C2FDA0EB0800022876D8AD
:100A200028688007F6D5286840F008002860286804
:100A3000216A20F0F000084328606868E16920F42A
:100A40007F4040EA0120686011E0FFE720F00100EC
:100A50002860FFF7A3FD804606E000BFFFF79EFD7C
:100A6000A0EB08000228DAD828688007F6D420789E
:100A7000C00740D0082E18D00C2E01D1032F14D05F
:100A80006068B0F5803F17D0B0F5A02F286817D068
:100A900020F480302860286820F480202860606876
:100AA000E0B1FFF77BFD804614E02868800322D583
:100AB0006068002878D01EE0286840F48030EDE7B8
:100AC00040F480202860F7E7FFF768FDA0EB0800FE
:100AD0006428A4D828688003F6D50CE0FFF75EFDF3
:100AE000804605E0FFF75AFDA0EB0800642896D881
:100AF00028688003F6D4207880073BD5042E11D0D7
:100B00000C2E01D1022F0DD0E06801E0AAE1FFE038
:100B1000002828681ED040F480702860FFF73EFD52
:100B200007460CE0286840050CD5E0680028C1D0D5
:100B300008E000BFFFF732FDC01B022893D82868E9
:100B40004005F7D56868217C20F0F85040EA016044
:100B500068600FE020F480702860FFF71FFD0746F3
:100B600005E000BFFFF71AFDC01B0228B1D82868B6
:100B70004005F7D42078000729D560690028D5F80A
:100B8000940012D040F00100C5F89400FFF706FD74
:100B9000074604E0FFF702FDC01B022899D8D5F8EC
:100BA00094008007F6D512E02BE120F00100C5F893
:100BB0009400FFF7F3FC074605E000BFFFF7EEFCEB
:100BC000C01B022885D8D5F894008007F6D4207879
:100BD000400766D5A86D0027C00008D4A86D40F076
:100BE0008050A865A86D012700F0805000904F4804
:100BF0000168C90512D40168814641F48071016021
:100C0000FFF7CCFC804605E0FFF7C8FCA0EB08002E
:100C100002287DD8D9F80000C005F5D5A0680128C4
:100C200016D00528D5F8900017D020F00100C5F89F
:100C30009000D5F8900020F0040000BFC5F89000A7
:100C4000A06841F28839C0B1FFF7A8FC80460FE0E8
:100C5000D5F8900040F00100F0E740F00400C5F83E
:100C60009000F5E7FFF79AFCA0EB080149454FD843
:100C7000D5F890008007F5D50EE0FFF78FFC804691
:100C800006E000BFFFF78AFCA0EB080149453FD80A
:100C9000D5F890008007F5D41FB1A86D20F08050E2
:100CA000A8652078800628D5606A0028D5F89800C5
:100CB00012D040F00100C5F89800FFF76FFC07461E
:100CC00005E000BFFFF76AFCC01B022820D8D5F85A
:100CD00098008007F6D510E020F00100C5F89800D4
:100CE000FFF75CFC074604E0FFF758FCC01B022836
:100CF0000ED8D5F898008007F6D4A06AF0B3022881
:100D000016D00C2E7DD0286820F08070286000E07E
:100D1000A7E0FFF743FC0446A6E0000000100240F5
:100D2000701500083C0000203400002000700040D6
:100D3000E868E26A00F00301914228D1216B00F0DB
:100D4000700209011039914221D1626B00F4FE4119
:100D5000B1EB022F1BD194F8382000F07841B1EBB1
:100D6000C26F14D1A18F00F4C00249084905A1F552
:100D7000001191420BD194F8401000E06AE049085C
:100D8000490600F0C060A1F1007181424BD00C2EE9
:100D900073D02868400170D4286820F080702860E3
:100DA000FFF7FCFB064604E0FFF7F8FB801B022878
:100DB00057D828688001F7D4F4E90B016FF00F02CF
:100DC00002EB01110843218A5204490802EB415108
:100DD000A26841EA02210843217D4FF07E42490882
:100DE00002EB41610843217B40EAC160E968244A83
:100DF00011400843E860286840F080702860E86887
:100E000000E03AE040F08070E860FFF7C7FB04467E
:100E100005E000BFFFF7C2FB001B022821D82868AD
:100E20008001F7D527E02868800124D4286840F0A5
:100E300080702860E86840F08070E860FFF7AEFBE3
:100E4000044604E0FFF7AAFB001B022809D8286823
:100E50008001F7D50FE000BFFFF7A0FB001B0228C1
:100E600002D90320BDE8F88328688001F4D4E8683B
:100E700004490840E8600020F4E70120F2E70000A0
:100E80008C809D01FCFFEEFE10B5401EB0F1807F0E
:100E900001D3012010BD4FF0E02460610F216017E5
:100EA00000F0EBFA0020A06107202061002010BDB7
:100EB00070477047704700002DE9F0410268044612
:100EC000D0691168936840F60F0528424FF000057D
:100ED00005D186067ED58E067CD5616E1BE1994FC5
:100EE00003F001060F40374374D0C70709D0CF0580
:100EF00007D501271762D4F8802042F00102C4F818
:100F0000802082070AD5DA0708D0276802223A62D1
:100F1000D4F8802042F00402C4F8802042070AD5A9
:100F2000DA0708D0236804221A62D4F8802042F03D
:100F30000202C4F8802002070CD501F020023243DF
:100F400008D0236808221A62D4F8802042F00802F0
:100F5000C4F8802002050BD54A0109D523684FF457
:100F600000621A62D4F8802042F02002C4F8802087
:100F7000D4F88020002A35D0800605D5880603D510
:100F8000616E09B120468847D4F8800021688968DD
:100F9000490602D410F0280F26D0204600F040FA6F
:100FA0002068806840061AD52068083050E8001F85
:100FB00021F0400140E80012002AF5D1206F70B105
:100FC00061498163206FFFF7A4F900280AD0206FE0
:100FD000816B01E00EE02046BDE8F0410847204665
:100FE000FFF768FFBDE8F0812046FFF763FFC4F814
:100FF0008050F7E7276E2026012F7BD1C70679D5D1
:10100000CF0677D51020106220688068400641D551
:10101000216F086840680004000CE3D0B4F8582041
:101020008242DFD9A4F85A000868006880062AD4F2
:10103000206850E8001F21F4807140E80012002A67
:10104000F6D12068083050E8001F21F0010140E887
:101050000012002AF5D12068083050E8001F21F066
:10106000400140E80012002AF5D1E66725662168B4
:1010700051E8000F20F0100041E80002002AF6D1EC
:10108000206FFFF721F9B4F85800B4F85A10401A4D
:1010900081B22AE0B4F85800B4F85A10401A81B26C
:1010A000B4F85A0000289DD000299BD0226852E84D
:1010B000000F20F4907042E80003002BF6D1206866
:1010C000083050E8002F22F0010240E80023002BF6
:1010D000F5D1E66725666566226852E8000F20F0C4
:1010E000100042E80003002BF6D12046FFF7E0FE97
:1010F00078E7FFE7C70209D55B0207D54FF48010F8
:1011000010622046BDE8F041FFF7D3BE020606D5C7
:101110000A0604D5A16E00297FF45DAF62E74006A0
:10112000E6D54806E4D52046026852E8001F21F0C3
:10113000400142E80013002BF6D18667856600F077
:1011400005F84FE7200100040D1400087047FEE782
:101150002DE9F047DFF880800024A8F120094646F9
:1011600038F814104F4659F824000122FFF710FAFE
:101170000025B0464FEA070908EB450709EB85064D
:1011800039893069FFF7F7F9012808D11E20FFF7E8
:10119000E7F839893069FFF7EEF9012811D06D1CA5
:1011A000EDB2042DE8D338F8141059F824000022C9
:1011B000FFF7EEF9641CE4B2042CD0D3FF20BDE8A5
:1011C000F08738F8141059F824000022FFF7E0F9EE
:1011D00005EB8400C0B2F2E720000020084B40B1CC
:1011E000012809D002280AD1012201021846FFF77E
:1011F000CFB901228021F9E701221102F6E77047F9
:1012000000040048094B40B1012809D002280BD145
:10121000002201021846FFF7BBB900228021F9E73E
:1012200000224FF48071F5E7704700000004004889
:101230002DE9F04186B014216846FEF7CAFF2D481B
:10124000C16C41F00101C164C16C01F00101059163
:10125000C16C41F00201C164C06C48F2E00400F0CE
:1012600002004FF090470590012221463846FFF7D3
:101270008FF9DFF884804FF46076012231464046D2
:10128000FFF786F90125CDE900450024029469465F
:1012900038460394FFF784F8782000904FF48810C4
:1012A00001900220029069464046FFF779F80096C7
:1012B000CDE90154694640460394FFF771F80022D6
:1012C00001210920FFF7CEF90920FFF7BDF900221F
:1012D00001210A20FFF7C6F90A20FFF7B5F900221D
:1012E00001211720FFF7BEF91720FFF7ADF906B06F
:1012F000BDE8F0810010024000040048FEE7FEE770
:1013000070470000F8B51C4D06460024A86DC000CB
:1013100002D5FFF70DFA0DE0A86D40F08050A865EA
:10132000A86D00F080500090FFF702FAA96D21F03F
:101330008051A965B0F5007F04D0802E07D94FF009
:1013400003040AE0802E08D9A02E01D804E001D1C0
:10135000022402E0702E00D101240848016821F027
:10136000070121430160006800F00700A04201D09E
:101370000120F8BD0020F8BD00100240002002400E
:101380007047FFF711B910B596B044216846FEF7D3
:1013900020FF142111A8FEF71CFF4FF40070FFF787
:1013A00093F908B172B6FEE71020009001200024E6
:1013B00060210690CDE907410221CDE90A100C9089
:1013C00028200D900720CDE90E0168461091FFF707
:1013D000ABFA08B172B6FEE70F2011900320CDE9F9
:1013E00012041494042111A81594FFF7A9F90028F8
:1013F00001D072B6FEE716B010BD000002480168C9
:1014000041F470010160704788ED00E010B5806A1A
:101410000021A0F85A10A0F85210FFF74BFD10BDA4
:10142000016851E8002F22F4907241E80023002B5C
:10143000F6D10168083151E8002F22F0010241E89D
:101440000023002BF5D1016E012908D1026852E872
:10145000001F21F0100142E80013002BF6D12021DB
:10146000C167002101664166704700000148FFF72F
:1014700023BD000040000020FEE70907090E0028F8
:1014800004DB00F1E02080F80014704700F00F004A
:1014900000F1E02080F8141D704702E008C8121F18
:1014A00008C1002AFAD170477047002001E001C14D
:1014B000121F002AFBD17047FFF77EF8FFF763FF8A
:1014C000FFF7B6FE0120FFF79DFE4FF4FA60FEF72E
:1014D00047FF0120FFF782FE0122D1034FF0904029
:1014E000FFF756F8214D42F210744FF4FA7600BF20
:1014F000FFF72EFEFF2814D020B3012825D00228A4
:1015000025D0032821D004282BD00528F0D1002095
:10151000FFF764FE4FF400712846FFF731F83046BC
:101520001CE00020FFF76EFE0220FFF757FE64204C
:10153000FEF716FF0020FFF751FE0220FFF762FEC4
:1015400064200BE00020FFF75DFE022003E0022094
:10155000FFF758FE0020FFF741FE2046FEF700FF90
:10156000C6E70220FFF73AFE8021D5E700040048D5
:101570000000000000000000010203040607080943
:10158000A0860100400D0300801A060000350C0003
:1015900040420F0080841E0000093D0000127A00C6
:1015A0000024F40000366E010048E801006CDC0203
:1015B000D015000800000020400000009A14000828
:1015C000101600084000002088040000AA1400083B
:1015D00000000048000000480000004800000048EB
:1015E00000040048000400480004004800040048CB
:1015F0000080200040008000100008002000400013
:1016000001000000100000000000000000093D0083
:040000050800018D61
:00000001FF
